:100000000C9434000C943E000C943E000C943E0082
:100010000C943E000C943E000C943E000C943E0068
:100020000C943E000C943E000C943E000C943E0058
:100030000C943E000C943E000C943E000C943E0048
:100040000C943E000C943E000C943E000C943E0038
:100050000C943E000C943E000C943E000C943E0028
:100060000C943E000C943E0011241FBECFEFD8E04C
:10007000DEBFCDBF0E9479000C9496000C94000066
:10008000CF93DF9300D000D000D0CDB7DEB79E83F2
:100090008D831BC019821A821B821C820CC0000037
:1000A00089819A81AB81BC810196A11DB11D898393
:1000B0009A83AB83BC8389819A81AB81BC81803474
:1000C0002FE19207A105B10550F38D819E819C011E
:1000D000215031093E832D830097E1F60000000096
:1000E0000F900F900F900F900F900F90DF91CF9186
:1000F0000895CF93DF93CDB7DEB784E290E0FC01A3
:10010000208184E290E02260FC01208385E290E07F
:10011000FC01308185E290E022E02327FC0120836E
:1001200084EF91E00E9440000000F0CFF894FFCFF0
:00000001FF
